{
	"_format": "hh-sol-artifact-1",
	"contractName": "OddOrcs",
	"sourceName": "contracts/OddOrcs.sol",
	"abi": [
		{
			"inputs": [
				{
					"internalType": "string",
					"name": "_name",
					"type": "string"
				},
				{
					"internalType": "string",
					"name": "_symbol",
					"type": "string"
				},
				{
					"internalType": "string",
					"name": "_initBaseURI",
					"type": "string"
				},
				{
					"internalType": "string",
					"name": "_initNotRevealedUri",
					"type": "string"
				}
			],
			"stateMutability": "nonpayable",
			"type": "constructor"
		},
		{
			"inputs": [],
			"name": "ApprovalCallerNotOwnerNorApproved",
			"type": "error"
		},
		{
			"inputs": [],
			"name": "ApprovalQueryForNonexistentToken",
			"type": "error"
		},
		{
			"inputs": [],
			"name": "ApproveToCaller",
			"type": "error"
		},
		{
			"inputs": [],
			"name": "BalanceQueryForZeroAddress",
			"type": "error"
		},
		{
			"inputs": [],
			"name": "MintERC2309QuantityExceedsLimit",
			"type": "error"
		},
		{
			"inputs": [],
			"name": "MintToZeroAddress",
			"type": "error"
		},
		{
			"inputs": [],
			"name": "MintZeroQuantity",
			"type": "error"
		},
		{
			"inputs": [],
			"name": "OwnerQueryForNonexistentToken",
			"type": "error"
		},
		{
			"inputs": [],
			"name": "OwnershipNotInitializedForExtraData",
			"type": "error"
		},
		{
			"inputs": [],
			"name": "TransferCallerNotOwnerNorApproved",
			"type": "error"
		},
		{
			"inputs": [],
			"name": "TransferFromIncorrectOwner",
			"type": "error"
		},
		{
			"inputs": [],
			"name": "TransferToNonERC721ReceiverImplementer",
			"type": "error"
		},
		{
			"inputs": [],
			"name": "TransferToZeroAddress",
			"type": "error"
		},
		{
			"inputs": [],
			"name": "URIQueryForNonexistentToken",
			"type": "error"
		},
		{
			"anonymous": false,
			"inputs": [
				{
					"indexed": true,
					"internalType": "address",
					"name": "owner",
					"type": "address"
				},
				{
					"indexed": true,
					"internalType": "address",
					"name": "approved",
					"type": "address"
				},
				{
					"indexed": true,
					"internalType": "uint256",
					"name": "tokenId",
					"type": "uint256"
				}
			],
			"name": "Approval",
			"type": "event"
		},
		{
			"anonymous": false,
			"inputs": [
				{
					"indexed": true,
					"internalType": "address",
					"name": "owner",
					"type": "address"
				},
				{
					"indexed": true,
					"internalType": "address",
					"name": "operator",
					"type": "address"
				},
				{
					"indexed": false,
					"internalType": "bool",
					"name": "approved",
					"type": "bool"
				}
			],
			"name": "ApprovalForAll",
			"type": "event"
		},
		{
			"anonymous": false,
			"inputs": [
				{
					"indexed": true,
					"internalType": "uint256",
					"name": "fromTokenId",
					"type": "uint256"
				},
				{
					"indexed": false,
					"internalType": "uint256",
					"name": "toTokenId",
					"type": "uint256"
				},
				{
					"indexed": true,
					"internalType": "address",
					"name": "from",
					"type": "address"
				},
				{
					"indexed": true,
					"internalType": "address",
					"name": "to",
					"type": "address"
				}
			],
			"name": "ConsecutiveTransfer",
			"type": "event"
		},
		{
			"anonymous": false,
			"inputs": [
				{
					"indexed": true,
					"internalType": "address",
					"name": "previousOwner",
					"type": "address"
				},
				{
					"indexed": true,
					"internalType": "address",
					"name": "newOwner",
					"type": "address"
				}
			],
			"name": "OwnershipTransferred",
			"type": "event"
		},
		{
			"anonymous": false,
			"inputs": [
				{
					"indexed": true,
					"internalType": "address",
					"name": "from",
					"type": "address"
				},
				{
					"indexed": true,
					"internalType": "address",
					"name": "to",
					"type": "address"
				},
				{
					"indexed": true,
					"internalType": "uint256",
					"name": "tokenId",
					"type": "uint256"
				}
			],
			"name": "Transfer",
			"type": "event"
		},
		{
			"inputs": [
				{
					"internalType": "address",
					"name": "to",
					"type": "address"
				},
				{
					"internalType": "uint256",
					"name": "tokenId",
					"type": "uint256"
				}
			],
			"name": "approve",
			"outputs": [],
			"stateMutability": "nonpayable",
			"type": "function"
		},
		{
			"inputs": [
				{
					"internalType": "address",
					"name": "owner",
					"type": "address"
				}
			],
			"name": "balanceOf",
			"outputs": [
				{
					"internalType": "uint256",
					"name": "",
					"type": "uint256"
				}
			],
			"stateMutability": "view",
			"type": "function"
		},
		{
			"inputs": [],
			"name": "baseExtension",
			"outputs": [
				{
					"internalType": "string",
					"name": "",
					"type": "string"
				}
			],
			"stateMutability": "view",
			"type": "function"
		},
		{
			"inputs": [],
			"name": "baseURI",
			"outputs": [
				{
					"internalType": "string",
					"name": "",
					"type": "string"
				}
			],
			"stateMutability": "view",
			"type": "function"
		},
		{
			"inputs": [
				{
					"internalType": "uint256",
					"name": "tokenId",
					"type": "uint256"
				}
			],
			"name": "getApproved",
			"outputs": [
				{
					"internalType": "address",
					"name": "",
					"type": "address"
				}
			],
			"stateMutability": "view",
			"type": "function"
		},
		{
			"inputs": [
				{
					"internalType": "address",
					"name": "owner",
					"type": "address"
				},
				{
					"internalType": "address",
					"name": "operator",
					"type": "address"
				}
			],
			"name": "isApprovedForAll",
			"outputs": [
				{
					"internalType": "bool",
					"name": "",
					"type": "bool"
				}
			],
			"stateMutability": "view",
			"type": "function"
		},
		{
			"inputs": [
				{
					"internalType": "address",
					"name": "_user",
					"type": "address"
				}
			],
			"name": "isOrclisted",
			"outputs": [
				{
					"internalType": "bool",
					"name": "",
					"type": "bool"
				}
			],
			"stateMutability": "view",
			"type": "function"
		},
		{
			"inputs": [],
			"name": "maxMintAmount",
			"outputs": [
				{
					"internalType": "uint256",
					"name": "",
					"type": "uint256"
				}
			],
			"stateMutability": "view",
			"type": "function"
		},
		{
			"inputs": [],
			"name": "maxSupply",
			"outputs": [
				{
					"internalType": "uint256",
					"name": "",
					"type": "uint256"
				}
			],
			"stateMutability": "view",
			"type": "function"
		},
		{
			"inputs": [
				{
					"internalType": "uint256",
					"name": "quantity",
					"type": "uint256"
				}
			],
			"name": "mint",
			"outputs": [],
			"stateMutability": "payable",
			"type": "function"
		},
		{
			"inputs": [],
			"name": "name",
			"outputs": [
				{
					"internalType": "string",
					"name": "",
					"type": "string"
				}
			],
			"stateMutability": "view",
			"type": "function"
		},
		{
			"inputs": [],
			"name": "nftPerAddressLimit",
			"outputs": [
				{
					"internalType": "uint256",
					"name": "",
					"type": "uint256"
				}
			],
			"stateMutability": "view",
			"type": "function"
		},
		{
			"inputs": [],
			"name": "notRevealedUri",
			"outputs": [
				{
					"internalType": "string",
					"name": "",
					"type": "string"
				}
			],
			"stateMutability": "view",
			"type": "function"
		},
		{
			"inputs": [],
			"name": "onlyOrcList",
			"outputs": [
				{
					"internalType": "bool",
					"name": "",
					"type": "bool"
				}
			],
			"stateMutability": "view",
			"type": "function"
		},
		{
			"inputs": [
				{
					"internalType": "address[]",
					"name": "_users",
					"type": "address[]"
				}
			],
			"name": "orclistUsers",
			"outputs": [],
			"stateMutability": "nonpayable",
			"type": "function"
		},
		{
			"inputs": [
				{
					"internalType": "uint256",
					"name": "",
					"type": "uint256"
				}
			],
			"name": "orclistedAddresses",
			"outputs": [
				{
					"internalType": "address",
					"name": "",
					"type": "address"
				}
			],
			"stateMutability": "view",
			"type": "function"
		},
		{
			"inputs": [],
			"name": "orcsReveal",
			"outputs": [],
			"stateMutability": "nonpayable",
			"type": "function"
		},
		{
			"inputs": [],
			"name": "orcsRevealed",
			"outputs": [
				{
					"internalType": "bool",
					"name": "",
					"type": "bool"
				}
			],
			"stateMutability": "view",
			"type": "function"
		},
		{
			"inputs": [],
			"name": "owner",
			"outputs": [
				{
					"internalType": "address",
					"name": "",
					"type": "address"
				}
			],
			"stateMutability": "view",
			"type": "function"
		},
		{
			"inputs": [
				{
					"internalType": "uint256",
					"name": "tokenId",
					"type": "uint256"
				}
			],
			"name": "ownerOf",
			"outputs": [
				{
					"internalType": "address",
					"name": "",
					"type": "address"
				}
			],
			"stateMutability": "view",
			"type": "function"
		},
		{
			"inputs": [
				{
					"internalType": "bool",
					"name": "_state",
					"type": "bool"
				}
			],
			"name": "pause",
			"outputs": [],
			"stateMutability": "nonpayable",
			"type": "function"
		},
		{
			"inputs": [],
			"name": "paused",
			"outputs": [
				{
					"internalType": "bool",
					"name": "",
					"type": "bool"
				}
			],
			"stateMutability": "view",
			"type": "function"
		},
		{
			"inputs": [],
			"name": "price",
			"outputs": [
				{
					"internalType": "uint256",
					"name": "",
					"type": "uint256"
				}
			],
			"stateMutability": "view",
			"type": "function"
		},
		{
			"inputs": [],
			"name": "renounceOwnership",
			"outputs": [],
			"stateMutability": "nonpayable",
			"type": "function"
		},
		{
			"inputs": [
				{
					"internalType": "address",
					"name": "from",
					"type": "address"
				},
				{
					"internalType": "address",
					"name": "to",
					"type": "address"
				},
				{
					"internalType": "uint256",
					"name": "tokenId",
					"type": "uint256"
				}
			],
			"name": "safeTransferFrom",
			"outputs": [],
			"stateMutability": "nonpayable",
			"type": "function"
		},
		{
			"inputs": [
				{
					"internalType": "address",
					"name": "from",
					"type": "address"
				},
				{
					"internalType": "address",
					"name": "to",
					"type": "address"
				},
				{
					"internalType": "uint256",
					"name": "tokenId",
					"type": "uint256"
				},
				{
					"internalType": "bytes",
					"name": "_data",
					"type": "bytes"
				}
			],
			"name": "safeTransferFrom",
			"outputs": [],
			"stateMutability": "nonpayable",
			"type": "function"
		},
		{
			"inputs": [
				{
					"internalType": "uint256",
					"name": "_limit",
					"type": "uint256"
				}
			],
			"name": "setAddressLimit",
			"outputs": [],
			"stateMutability": "nonpayable",
			"type": "function"
		},
		{
			"inputs": [
				{
					"internalType": "address",
					"name": "operator",
					"type": "address"
				},
				{
					"internalType": "bool",
					"name": "approved",
					"type": "bool"
				}
			],
			"name": "setApprovalForAll",
			"outputs": [],
			"stateMutability": "nonpayable",
			"type": "function"
		},
		{
			"inputs": [
				{
					"internalType": "string",
					"name": "_newBaseURI",
					"type": "string"
				}
			],
			"name": "setBaseURI",
			"outputs": [],
			"stateMutability": "nonpayable",
			"type": "function"
		},
		{
			"inputs": [
				{
					"internalType": "string",
					"name": "_notRevealedURI",
					"type": "string"
				}
			],
			"name": "setNotRevealedURI",
			"outputs": [],
			"stateMutability": "nonpayable",
			"type": "function"
		},
		{
			"inputs": [
				{
					"internalType": "bool",
					"name": "_state",
					"type": "bool"
				}
			],
			"name": "setOnlyOrclisted",
			"outputs": [],
			"stateMutability": "nonpayable",
			"type": "function"
		},
		{
			"inputs": [
				{
					"internalType": "uint256",
					"name": "_newPrice",
					"type": "uint256"
				}
			],
			"name": "setPrice",
			"outputs": [],
			"stateMutability": "nonpayable",
			"type": "function"
		},
		{
			"inputs": [
				{
					"internalType": "uint256",
					"name": "_newmaxMintAmount",
					"type": "uint256"
				}
			],
			"name": "setmaxMintAmount",
			"outputs": [],
			"stateMutability": "nonpayable",
			"type": "function"
		},
		{
			"inputs": [
				{
					"internalType": "bytes4",
					"name": "interfaceId",
					"type": "bytes4"
				}
			],
			"name": "supportsInterface",
			"outputs": [
				{
					"internalType": "bool",
					"name": "",
					"type": "bool"
				}
			],
			"stateMutability": "view",
			"type": "function"
		},
		{
			"inputs": [],
			"name": "symbol",
			"outputs": [
				{
					"internalType": "string",
					"name": "",
					"type": "string"
				}
			],
			"stateMutability": "view",
			"type": "function"
		},
		{
			"inputs": [
				{
					"internalType": "uint256",
					"name": "tokenId",
					"type": "uint256"
				}
			],
			"name": "tokenURI",
			"outputs": [
				{
					"internalType": "string",
					"name": "",
					"type": "string"
				}
			],
			"stateMutability": "view",
			"type": "function"
		},
		{
			"inputs": [],
			"name": "totalSupply",
			"outputs": [
				{
					"internalType": "uint256",
					"name": "",
					"type": "uint256"
				}
			],
			"stateMutability": "view",
			"type": "function"
		},
		{
			"inputs": [
				{
					"internalType": "address",
					"name": "from",
					"type": "address"
				},
				{
					"internalType": "address",
					"name": "to",
					"type": "address"
				},
				{
					"internalType": "uint256",
					"name": "tokenId",
					"type": "uint256"
				}
			],
			"name": "transferFrom",
			"outputs": [],
			"stateMutability": "nonpayable",
			"type": "function"
		},
		{
			"inputs": [
				{
					"internalType": "address",
					"name": "newOwner",
					"type": "address"
				}
			],
			"name": "transferOwnership",
			"outputs": [],
			"stateMutability": "nonpayable",
			"type": "function"
		},
		{
			"inputs": [],
			"name": "withdraw",
			"outputs": [],
			"stateMutability": "payable",
			"type": "function"
		}
	],
	"bytecode": "0x60c06040526005608090815264173539b7b760d91b60a052600a906200002690826200025b565b5066354a6ba7a18000600d556005600e819055600f556010805462ffffff1916620100001790553480156200005a57600080fd5b50604051620023df380380620023df8339810160408190526200007d91620003de565b838360026200008d83826200025b565b5060036200009c82826200025b565b5050600160005550620000af33620000cf565b620000ba8262000121565b620000c5816200013d565b5050505062000497565b600880546001600160a01b038381166001600160a01b0319831681179093556040519116919082907f8be0079c531659141344cd1fd0a4f28419497f9722a3daafe3b4186f6b6457e090600090a35050565b6200012b62000155565b60096200013982826200025b565b5050565b6200014762000155565b600b6200013982826200025b565b6008546001600160a01b03163314620001b45760405162461bcd60e51b815260206004820181905260248201527f4f776e61626c653a2063616c6c6572206973206e6f7420746865206f776e6572604482015260640160405180910390fd5b565b634e487b7160e01b600052604160045260246000fd5b600181811c90821680620001e157607f821691505b6020821081036200020257634e487b7160e01b600052602260045260246000fd5b50919050565b601f8211156200025657600081815260208120601f850160051c81016020861015620002315750805b601f850160051c820191505b8181101562000252578281556001016200023d565b5050505b505050565b81516001600160401b03811115620002775762000277620001b6565b6200028f81620002888454620001cc565b8462000208565b602080601f831160018114620002c75760008415620002ae5750858301515b600019600386901b1c1916600185901b17855562000252565b600085815260208120601f198616915b82811015620002f857888601518255948401946001909101908401620002d7565b5085821015620003175787850151600019600388901b60f8161c191681555b5050505050600190811b01905550565b600082601f8301126200033957600080fd5b81516001600160401b0380821115620003565762000356620001b6565b604051601f8301601f19908116603f01168101908282118183101715620003815762000381620001b6565b816040528381526020925086838588010111156200039e57600080fd5b600091505b83821015620003c25785820183015181830184015290820190620003a3565b83821115620003d45760008385830101525b9695505050505050565b60008060008060808587031215620003f557600080fd5b84516001600160401b03808211156200040d57600080fd5b6200041b8883890162000327565b955060208701519150808211156200043257600080fd5b620004408883890162000327565b945060408701519150808211156200045757600080fd5b620004658883890162000327565b935060608701519150808211156200047c57600080fd5b506200048b8782880162000327565b91505092959194509250565b611f3880620004a76000396000f3fe60806040526004361061023b5760003560e01c80637f00c7a61161012e578063ba7d2c76116100ab578063df6f837a1161006f578063df6f837a1461064c578063e985e9c51461066b578063ef110813146106b4578063f2c4ce1e146106c9578063f2fde38b146106e957600080fd5b8063ba7d2c76146105cb578063c4d2042c146105e1578063c668286214610601578063c87b56dd14610616578063d5abeb011461063657600080fd5b8063a0712d68116100f2578063a0712d6814610538578063a22cb4651461054b578063ab3cfa691461056b578063b88d4fde1461058b578063b8d2a9c3146105ab57600080fd5b80637f00c7a6146104af5780638da5cb5b146104cf57806391b7f5ed146104ed57806395d89b411461050d578063a035b1fe1461052257600080fd5b80632bcdf3f4116101bc5780636352211e116101805780636352211e146104255780636c0360eb1461044557806370a082311461045a578063715018a61461047a57806372c3bd0d1461048f57600080fd5b80632bcdf3f4146103a35780633ccfd60b146103c357806342842e0e146103cb57806355f804b3146103eb5780635c975abb1461040b57600080fd5b8063095ea7b311610203578063095ea7b31461030657806318160ddd14610326578063239c70ae1461034d57806323b872dd14610363578063283cb52c1461038357600080fd5b806301ffc9a71461024057806302329a291461027557806306fdde0314610297578063081812fc146102b9578063081c8c44146102f1575b600080fd5b34801561024c57600080fd5b5061026061025b36600461186b565b610709565b60405190151581526020015b60405180910390f35b34801561028157600080fd5b5061029561029036600461189d565b61075b565b005b3480156102a357600080fd5b506102ac610776565b60405161026c9190611910565b3480156102c557600080fd5b506102d96102d4366004611923565b610808565b6040516001600160a01b03909116815260200161026c565b3480156102fd57600080fd5b506102ac61084c565b34801561031257600080fd5b50610295610321366004611953565b6108da565b34801561033257600080fd5b5060015460005403600019015b60405190815260200161026c565b34801561035957600080fd5b5061033f600e5481565b34801561036f57600080fd5b5061029561037e36600461197d565b61097a565b34801561038f57600080fd5b5061029561039e3660046119b9565b610b13565b3480156103af57600080fd5b506102956103be366004611923565b610b38565b610295610b45565b3480156103d757600080fd5b506102956103e636600461197d565b610ba5565b3480156103f757600080fd5b50610295610406366004611aba565b610bc0565b34801561041757600080fd5b506010546102609060ff1681565b34801561043157600080fd5b506102d9610440366004611923565b610bd8565b34801561045157600080fd5b506102ac610be3565b34801561046657600080fd5b5061033f610475366004611b03565b610bf0565b34801561048657600080fd5b50610295610c3f565b34801561049b57600080fd5b506102956104aa36600461189d565b610c53565b3480156104bb57600080fd5b506102956104ca366004611923565b610c77565b3480156104db57600080fd5b506008546001600160a01b03166102d9565b3480156104f957600080fd5b50610295610508366004611923565b610c84565b34801561051957600080fd5b506102ac610c91565b34801561052e57600080fd5b5061033f600d5481565b610295610546366004611923565b610ca0565b34801561055757600080fd5b50610295610566366004611b1e565b610f58565b34801561057757600080fd5b506010546102609062010000900460ff1681565b34801561059757600080fd5b506102956105a6366004611b51565b610fed565b3480156105b757600080fd5b506102606105c6366004611b03565b611037565b3480156105d757600080fd5b5061033f600f5481565b3480156105ed57600080fd5b506102d96105fc366004611923565b6110a0565b34801561060d57600080fd5b506102ac6110ca565b34801561062257600080fd5b506102ac610631366004611923565b6110d7565b34801561064257600080fd5b5061033f611e6181565b34801561065857600080fd5b5060105461026090610100900460ff1681565b34801561067757600080fd5b50610260610686366004611bcd565b6001600160a01b03918216600090815260076020908152604080832093909416825291909152205460ff1690565b3480156106c057600080fd5b5061029561124b565b3480156106d557600080fd5b506102956106e4366004611aba565b611264565b3480156106f557600080fd5b50610295610704366004611b03565b611278565b60006301ffc9a760e01b6001600160e01b03198316148061073a57506380ac58cd60e01b6001600160e01b03198316145b806107555750635b5e139f60e01b6001600160e01b03198316145b92915050565b6107636112ee565b6010805460ff1916911515919091179055565b60606002805461078590611bf7565b80601f01602080910402602001604051908101604052809291908181526020018280546107b190611bf7565b80156107fe5780601f106107d3576101008083540402835291602001916107fe565b820191906000526020600020905b8154815290600101906020018083116107e157829003601f168201915b5050505050905090565b600061081382611348565b610830576040516333d1c03960e21b815260040160405180910390fd5b506000908152600660205260409020546001600160a01b031690565b600b805461085990611bf7565b80601f016020809104026020016040519081016040528092919081815260200182805461088590611bf7565b80156108d25780601f106108a7576101008083540402835291602001916108d2565b820191906000526020600020905b8154815290600101906020018083116108b557829003601f168201915b505050505081565b60006108e582610bd8565b9050336001600160a01b0382161461091e576109018133610686565b61091e576040516367d9dca160e11b815260040160405180910390fd5b60008281526006602052604080822080546001600160a01b0319166001600160a01b0387811691821790925591518593918516917f8c5be1e5ebec7d5bd14f71427d1e84f3dd0314c0f7b2291e5b200ac8c7c3b92591a4505050565b60006109858261137d565b9050836001600160a01b0316816001600160a01b0316146109b85760405162a1148160e81b815260040160405180910390fd5b60008281526006602052604090208054338082146001600160a01b03881690911417610a05576109e88633610686565b610a0557604051632ce44b5f60e11b815260040160405180910390fd5b6001600160a01b038516610a2c57604051633a954ecd60e21b815260040160405180910390fd5b8015610a3757600082555b6001600160a01b038681166000908152600560205260408082208054600019019055918716808252919020805460010190554260a01b17600160e11b17600085815260046020526040812091909155600160e11b84169003610ac957600184016000818152600460205260408120549003610ac7576000548114610ac75760008181526004602052604090208490555b505b83856001600160a01b0316876001600160a01b03167fddf252ad1be2c89b69c2b068fc378daa952ba7f163c4a11628f55a4df523b3ef60405160405180910390a45b505050505050565b610b1b6112ee565b610b27600c60006117bf565b610b33600c83836117dd565b505050565b610b406112ee565b600f55565b610b4d6112ee565b604051600090339047908381818185875af1925050503d8060008114610b8f576040519150601f19603f3d011682016040523d82523d6000602084013e610b94565b606091505b5050905080610ba257600080fd5b50565b610b3383838360405180602001604052806000815250610fed565b610bc86112ee565b6009610bd48282611c77565b5050565b60006107558261137d565b6009805461085990611bf7565b60006001600160a01b038216610c19576040516323d3ad8160e21b815260040160405180910390fd5b506001600160a01b031660009081526005602052604090205467ffffffffffffffff1690565b610c476112ee565b610c5160006113ec565b565b610c5b6112ee565b60108054911515620100000262ff000019909216919091179055565b610c7f6112ee565b600e55565b610c8c6112ee565b600d55565b60606003805461078590611bf7565b60105460ff1615610d085760405162461bcd60e51b815260206004820152602760248201527f546865204f726320636f756e63696c20686173207061757365642074686520636044820152661bdb9d1c9858dd60ca1b60648201526084015b60405180910390fd5b60008111610d585760405162461bcd60e51b815260206004820152601c60248201527f4d757374206d696e74206d6f7265207468616e203020746f6b656e73000000006044820152606401610cff565b600e54336000908152600560205260409081902054610d82911c67ffffffffffffffff1683611d4d565b1115610dd05760405162461bcd60e51b815260206004820152601a60248201527f457863656564656420746865206c696d6974206f66204f7263730000000000006044820152606401610cff565b600154600054611e619183910360001901610deb9190611d4d565b1115610e325760405162461bcd60e51b8152602060048201526016602482015275139bdd08195b9bdd59da081d1bdad95b9cc81b19599d60521b6044820152606401610cff565b6008546001600160a01b03163314610f4e5760105462010000900460ff161515600103610ecb57610e6233611037565b610eae5760405162461bcd60e51b815260206004820152601b60248201527f55736572206973206e6f74206f6e20746865204f7263204c69737400000000006044820152606401610cff565b6000610eb933610bf0565b9050600f548110610ec957600080fd5b505b80600d54610ed99190611d65565b341015610f4e5760405162461bcd60e51b815260206004820152603c60248201527f4e6f7420656e6f75676820657468657220686173206265656e2073656e74207460448201527f6f206761696e20656e74727920746f206d6964646c65206561727468000000006064820152608401610cff565b610ba2338261143e565b336001600160a01b03831603610f815760405163b06307db60e01b815260040160405180910390fd5b3360008181526007602090815260408083206001600160a01b03871680855290835292819020805460ff191686151590811790915590519081529192917f17307eab39ab6107e8899845ad3d59bd9653f200f220920489ca2b5937696c31910160405180910390a35050565b610ff884848461097a565b6001600160a01b0383163b156110315761101484848484611458565b611031576040516368d2bf6b60e11b815260040160405180910390fd5b50505050565b6000805b600c5481101561109757826001600160a01b0316600c828154811061106257611062611d84565b6000918252602090912001546001600160a01b0316036110855750600192915050565b8061108f81611d9a565b91505061103b565b50600092915050565b600c81815481106110b057600080fd5b6000918252602090912001546001600160a01b0316905081565b600a805461085990611bf7565b60606110e282611348565b6111465760405162461bcd60e51b815260206004820152602f60248201527f4552433732314d657461646174613a2055524920717565727920666f72206e6f60448201526e3732bc34b9ba32b73a103a37b5b2b760891b6064820152608401610cff565b601054610100900460ff1615156000036111ec57600b805461116790611bf7565b80601f016020809104026020016040519081016040528092919081815260200182805461119390611bf7565b80156111e05780601f106111b5576101008083540402835291602001916111e0565b820191906000526020600020905b8154815290600101906020018083116111c357829003601f168201915b50505050509050919050565b60006111f6611544565b905060008151116112165760405180602001604052806000815250611244565b8061122084611553565b600a60405160200161123493929190611db3565b6040516020818303038152906040525b9392505050565b6112536112ee565b6010805461ff001916610100179055565b61126c6112ee565b600b610bd48282611c77565b6112806112ee565b6001600160a01b0381166112e55760405162461bcd60e51b815260206004820152602660248201527f4f776e61626c653a206e6577206f776e657220697320746865207a65726f206160448201526564647265737360d01b6064820152608401610cff565b610ba2816113ec565b6008546001600160a01b03163314610c515760405162461bcd60e51b815260206004820181905260248201527f4f776e61626c653a2063616c6c6572206973206e6f7420746865206f776e65726044820152606401610cff565b60008160011115801561135c575060005482105b8015610755575050600090815260046020526040902054600160e01b161590565b600081806001116113d3576000548110156113d35760008181526004602052604081205490600160e01b821690036113d1575b806000036112445750600019016000818152600460205260409020546113b0565b505b604051636f96cda160e11b815260040160405180910390fd5b600880546001600160a01b038381166001600160a01b0319831681179093556040519116919082907f8be0079c531659141344cd1fd0a4f28419497f9722a3daafe3b4186f6b6457e090600090a35050565b610bd4828260405180602001604052806000815250611654565b604051630a85bd0160e11b81526000906001600160a01b0385169063150b7a029061148d903390899088908890600401611e53565b6020604051808303816000875af19250505080156114c8575060408051601f3d908101601f191682019092526114c591810190611e90565b60015b611526573d8080156114f6576040519150601f19603f3d011682016040523d82523d6000602084013e6114fb565b606091505b50805160000361151e576040516368d2bf6b60e11b815260040160405180910390fd5b805181602001fd5b6001600160e01b031916630a85bd0160e11b1490505b949350505050565b60606009805461078590611bf7565b60608160000361157a5750506040805180820190915260018152600360fc1b602082015290565b8160005b81156115a4578061158e81611d9a565b915061159d9050600a83611ec3565b915061157e565b60008167ffffffffffffffff8111156115bf576115bf611a2e565b6040519080825280601f01601f1916602001820160405280156115e9576020820181803683370190505b5090505b841561153c576115fe600183611ed7565b915061160b600a86611eee565b611616906030611d4d565b60f81b81838151811061162b5761162b611d84565b60200101906001600160f81b031916908160001a90535061164d600a86611ec3565b94506115ed565b61165e83836116c1565b6001600160a01b0383163b15610b33576000548281035b6116886000868380600101945086611458565b6116a5576040516368d2bf6b60e11b815260040160405180910390fd5b8181106116755781600054146116ba57600080fd5b5050505050565b60008054908290036116e65760405163b562e8dd60e01b815260040160405180910390fd5b6001600160a01b03831660008181526005602090815260408083208054680100000000000000018802019055848352600490915281206001851460e11b4260a01b178317905582840190839083907fddf252ad1be2c89b69c2b068fc378daa952ba7f163c4a11628f55a4df523b3ef8180a4600183015b81811461179557808360007fddf252ad1be2c89b69c2b068fc378daa952ba7f163c4a11628f55a4df523b3ef600080a460010161175d565b50816000036117b657604051622e076360e81b815260040160405180910390fd5b60005550505050565b5080546000825590600052602060002090810190610ba29190611840565b828054828255906000526020600020908101928215611830579160200282015b828111156118305781546001600160a01b0319166001600160a01b038435161782556020909201916001909101906117fd565b5061183c929150611840565b5090565b5b8082111561183c5760008155600101611841565b6001600160e01b031981168114610ba257600080fd5b60006020828403121561187d57600080fd5b813561124481611855565b8035801515811461189857600080fd5b919050565b6000602082840312156118af57600080fd5b61124482611888565b60005b838110156118d35781810151838201526020016118bb565b838111156110315750506000910152565b600081518084526118fc8160208601602086016118b8565b601f01601f19169290920160200192915050565b60208152600061124460208301846118e4565b60006020828403121561193557600080fd5b5035919050565b80356001600160a01b038116811461189857600080fd5b6000806040838503121561196657600080fd5b61196f8361193c565b946020939093013593505050565b60008060006060848603121561199257600080fd5b61199b8461193c565b92506119a96020850161193c565b9150604084013590509250925092565b600080602083850312156119cc57600080fd5b823567ffffffffffffffff808211156119e457600080fd5b818501915085601f8301126119f857600080fd5b813581811115611a0757600080fd5b8660208260051b8501011115611a1c57600080fd5b60209290920196919550909350505050565b634e487b7160e01b600052604160045260246000fd5b600067ffffffffffffffff80841115611a5f57611a5f611a2e565b604051601f8501601f19908116603f01168101908282118183101715611a8757611a87611a2e565b81604052809350858152868686011115611aa057600080fd5b858560208301376000602087830101525050509392505050565b600060208284031215611acc57600080fd5b813567ffffffffffffffff811115611ae357600080fd5b8201601f81018413611af457600080fd5b61153c84823560208401611a44565b600060208284031215611b1557600080fd5b6112448261193c565b60008060408385031215611b3157600080fd5b611b3a8361193c565b9150611b4860208401611888565b90509250929050565b60008060008060808587031215611b6757600080fd5b611b708561193c565b9350611b7e6020860161193c565b925060408501359150606085013567ffffffffffffffff811115611ba157600080fd5b8501601f81018713611bb257600080fd5b611bc187823560208401611a44565b91505092959194509250565b60008060408385031215611be057600080fd5b611be98361193c565b9150611b486020840161193c565b600181811c90821680611c0b57607f821691505b602082108103611c2b57634e487b7160e01b600052602260045260246000fd5b50919050565b601f821115610b3357600081815260208120601f850160051c81016020861015611c585750805b601f850160051c820191505b81811015610b0b57828155600101611c64565b815167ffffffffffffffff811115611c9157611c91611a2e565b611ca581611c9f8454611bf7565b84611c31565b602080601f831160018114611cda5760008415611cc25750858301515b600019600386901b1c1916600185901b178555610b0b565b600085815260208120601f198616915b82811015611d0957888601518255948401946001909101908401611cea565b5085821015611d275787850151600019600388901b60f8161c191681555b5050505050600190811b01905550565b634e487b7160e01b600052601160045260246000fd5b60008219821115611d6057611d60611d37565b500190565b6000816000190483118215151615611d7f57611d7f611d37565b500290565b634e487b7160e01b600052603260045260246000fd5b600060018201611dac57611dac611d37565b5060010190565b600084516020611dc68285838a016118b8565b855191840191611dd98184848a016118b8565b8554920191600090611dea81611bf7565b60018281168015611e025760018114611e1757611e43565b60ff1984168752821515830287019450611e43565b896000528560002060005b84811015611e3b57815489820152908301908701611e22565b505082870194505b50929a9950505050505050505050565b6001600160a01b0385811682528416602082015260408101839052608060608201819052600090611e86908301846118e4565b9695505050505050565b600060208284031215611ea257600080fd5b815161124481611855565b634e487b7160e01b600052601260045260246000fd5b600082611ed257611ed2611ead565b500490565b600082821015611ee957611ee9611d37565b500390565b600082611efd57611efd611ead565b50069056fea2646970667358221220abff668f13d79793a794e537a7208bd767a1bbd0eae7b268f77cbc0ad9fab65a64736f6c634300080f0033000000000000000000000000000000000000000000000000000000000000008000000000000000000000000000000000000000000000000000000000000000c00000000000000000000000000000000000000000000000000000000000000100000000000000000000000000000000000000000000000000000000000000016000000000000000000000000000000000000000000000000000000000000000084f6464204f72637300000000000000000000000000000000000000000000000000000000000000000000000000000000000000000000000000000000000000034f524300000000000000000000000000000000000000000000000000000000000000000000000000000000000000000000000000000000000000000000000036697066733a2f2f516d56486a5839727934423747334361696f4850644c59563261637845517144713770514e526a42364c674236782f000000000000000000000000000000000000000000000000000000000000000000000000000000000041697066733a2f2f516d5931676b6e4a427371736f52525236746d374c5a5864554850434b6d553434674b44646e4c6e65386b676a582f68696464656e2e6a736f6e00000000000000000000000000000000000000000000000000000000000000",
	"linkReferences": {},
	"deployedLinkReferences": {}
}